{
  "contractName": "SnowLake",
  "abi": [
    {
      "inputs": [],
      "payable": false,
      "stateMutability": "nonpayable",
      "type": "constructor"
    },
    {
      "constant": true,
      "inputs": [],
      "name": "a",
      "outputs": [
        {
          "internalType": "uint256",
          "name": "",
          "type": "uint256"
        }
      ],
      "payable": false,
      "stateMutability": "view",
      "type": "function"
    },
    {
      "constant": true,
      "inputs": [
        {
          "internalType": "uint256",
          "name": "",
          "type": "uint256"
        }
      ],
      "name": "todos",
      "outputs": [
        {
          "internalType": "string",
          "name": "text",
          "type": "string"
        },
        {
          "internalType": "bool",
          "name": "completed",
          "type": "bool"
        }
      ],
      "payable": false,
      "stateMutability": "view",
      "type": "function"
    },
    {
      "constant": true,
      "inputs": [
        {
          "internalType": "uint256",
          "name": "one",
          "type": "uint256"
        },
        {
          "internalType": "uint256",
          "name": "two",
          "type": "uint256"
        }
      ],
      "name": "function1",
      "outputs": [
        {
          "internalType": "bool",
          "name": "success",
          "type": "bool"
        },
        {
          "internalType": "uint256",
          "name": "res",
          "type": "uint256"
        }
      ],
      "payable": false,
      "stateMutability": "pure",
      "type": "function"
    },
    {
      "constant": true,
      "inputs": [
        {
          "internalType": "uint256",
          "name": "one",
          "type": "uint256"
        },
        {
          "internalType": "uint256",
          "name": "two",
          "type": "uint256"
        }
      ],
      "name": "function2",
      "outputs": [
        {
          "internalType": "bool",
          "name": "success",
          "type": "bool"
        },
        {
          "internalType": "uint256",
          "name": "res",
          "type": "uint256"
        }
      ],
      "payable": false,
      "stateMutability": "pure",
      "type": "function"
    },
    {
      "constant": true,
      "inputs": [
        {
          "internalType": "uint256",
          "name": "number1",
          "type": "uint256"
        },
        {
          "internalType": "uint256",
          "name": "number2",
          "type": "uint256"
        }
      ],
      "name": "multiply",
      "outputs": [
        {
          "internalType": "uint256",
          "name": "",
          "type": "uint256"
        }
      ],
      "payable": false,
      "stateMutability": "view",
      "type": "function"
    },
    {
      "constant": false,
      "inputs": [
        {
          "internalType": "string",
          "name": "_text",
          "type": "string"
        }
      ],
      "name": "create",
      "outputs": [],
      "payable": false,
      "stateMutability": "nonpayable",
      "type": "function"
    },
    {
      "constant": false,
      "inputs": [
        {
          "internalType": "uint256",
          "name": "_index",
          "type": "uint256"
        },
        {
          "internalType": "string",
          "name": "_text",
          "type": "string"
        }
      ],
      "name": "updateText",
      "outputs": [],
      "payable": false,
      "stateMutability": "nonpayable",
      "type": "function"
    },
    {
      "constant": true,
      "inputs": [
        {
          "internalType": "uint256",
          "name": "_index",
          "type": "uint256"
        }
      ],
      "name": "get",
      "outputs": [
        {
          "internalType": "string",
          "name": "",
          "type": "string"
        },
        {
          "internalType": "bool",
          "name": "",
          "type": "bool"
        }
      ],
      "payable": false,
      "stateMutability": "view",
      "type": "function"
    },
    {
      "constant": false,
      "inputs": [
        {
          "internalType": "uint256",
          "name": "_index",
          "type": "uint256"
        }
      ],
      "name": "toggleCompleted",
      "outputs": [],
      "payable": false,
      "stateMutability": "nonpayable",
      "type": "function"
    }
  ],
  "bytecode": "0x6080604052600360005534801561001557600080fd5b506106fe806100256000396000f3fe608060405234801561001057600080fd5b50600436106100935760003560e01c80639507d39a116100665780639507d39a14610132578063b6a46b3b146101d2578063bc8bc2b414610242578063cd1116141461025f578063fa777a3d146100f457610093565b80630dbe671f14610098578063165c4a16146100b2578063455f5024146100d557806368a4f69b146100f4575b600080fd5b6100a06102d6565b60408051918252519081900360200190f35b6100a0600480360360408110156100c857600080fd5b50803590602001356102dc565b6100f2600480360360208110156100eb57600080fd5b50356102e9565b005b6101176004803603604081101561010a57600080fd5b5080359060200135610348565b60408051921515835260208301919091528051918290030190f35b61014f6004803603602081101561014857600080fd5b5035610350565b604051808060200183151515158152602001828103825284818151815260200191508051906020019080838360005b8381101561019657818101518382015260200161017e565b50505050905090810190601f1680156101c35780820380516001836020036101000a031916815260200191505b50935050505060405180910390f35b6100f2600480360360208110156101e857600080fd5b81019060208101813564010000000081111561020357600080fd5b82018360208201111561021557600080fd5b8035906020019184600183028401116401000000008311171561023757600080fd5b509092509050610430565b61014f6004803603602081101561025857600080fd5b50356104c3565b6100f26004803603604081101561027557600080fd5b8135919081019060408101602082013564010000000081111561029757600080fd5b8201836020820111156102a957600080fd5b803590602001918460018302840111640100000000831117156102cb57600080fd5b509092509050610579565b60005481565b6000544202919091020290565b600381815481106102f657fe5b906000526020600020906002020160010160009054906101000a900460ff16156003828154811061032357fe5b60009182526020909120600290910201600101805460ff191691151591909117905550565b600192910190565b6060600061035c6105a8565b6003848154811061036957fe5b60009182526020918290206040805160029384029092018054600181161561010002600019011693909304601f810185900490940282016060908101825290820184815291938492918491908401828280156104065780601f106103db57610100808354040283529160200191610406565b820191906000526020600020905b8154815290600101906020018083116103e957829003601f168201915b50505091835250506001919091015460ff1615156020918201528151910151909350915050915091565b6040805160606020601f85018190040282018101835291810183815260039282919086908690819085018382808284376000920182905250938552505050602091820181905283546001810180865594825290829020835180516002909302909101926104a2928492909101906105c0565b50602091909101516001909101805460ff1916911515919091179055505050565b600381815481106104d057fe5b60009182526020918290206002918202018054604080516001831615610100026000190190921693909304601f8101859004850282018501909352828152909350918391908301828280156105665780601f1061053b57610100808354040283529160200191610566565b820191906000526020600020905b81548152906001019060200180831161054957829003601f168201915b5050506001909301549192505060ff1682565b81816003858154811061058857fe5b600091825260209091206105a2936002909202019161063e565b50505050565b60408051808201909152606081526000602082015290565b828054600181600116156101000203166002900490600052602060002090601f016020900481019282601f1061060157805160ff191683800117855561062e565b8280016001018555821561062e579182015b8281111561062e578251825591602001919060010190610613565b5061063a9291506106ac565b5090565b828054600181600116156101000203166002900490600052602060002090601f016020900481019282601f1061067f5782800160ff1982351617855561062e565b8280016001018555821561062e579182015b8281111561062e578235825591602001919060010190610691565b6106c691905b8082111561063a57600081556001016106b2565b9056fea265627a7a72315820636106c2263ff8c8e8b6949e310ed3f80b43827984838292a55695b459882a6f64736f6c63430005100032",
  "source": "// SPDX-License-Identifier: MIT\npragma solidity >=0.4.22 <0.9.0;\n\ncontract SnowLake {\n  uint256 public a = 3;\n  string text;\n  bool completed; \n  struct Todo{\n    string text;\n    bool completed;\n  }\n\n\n  Todo[] public todos;\n\n  constructor() public {\n\n  }\n\n\n\n  function function1(uint256 one, uint256 two) external pure returns (bool success, uint256 res) { \n    success = true;\n    res = one + two;\n  }\n\n  function function2(uint256 one, uint256 two) external pure returns (bool success, uint256 res) { \n    return (true, one + two);\n  }\n\n  function multiply(uint256 number1, uint256 number2) public view returns(uint256){\n    return a * block.timestamp * number1 * number2;\n  }\n\n  function create(string calldata _text) external{\n         todos.push(Todo({\n                text: _text,\n                completed: false\n         }));\n    }\n\n\n    function updateText(uint _index, string calldata _text) external {\n        //more expensive\n        todos[_index].text = _text;\n        // does update with less gas\n        // Todo storage todo = todos[_index];\n        // todo.text = _text;\n    }\n\n    function get(uint _index) external view returns (string memory, bool){\n        Todo memory todo = todos[_index];\n        return (todo.text, todo.completed);\n    }\n\n    function toggleCompleted(uint _index) external {\n        todos[_index].completed = !todos[_index].completed;\n\n}\n\n}\n",
  "sourcePath": "C:\\Users\\Ripper\\OneDrive\\Desktop\\solidity-apps\\todos\\contracts\\SnowLake.sol",
  "compiler": {
    "name": "solc",
    "version": "0.5.16+commit.9c3226ce.Emscripten.clang"
  },
  "schemaVersion": "3.4.9",
  "updatedAt": "2022-11-02T10:34:18.036Z",
  "networkType": "ethereum",
  "devdoc": {
    "methods": {}
  },
  "userdoc": {
    "methods": {}
  }
}